S010000050726F6A656374312E737265630C
S11300000C9434000C9451000C9451000C94510045
S11300100C9451000C9451000C9451000C94510018
S11300200C9451000C9451000C9451000C94510008
S11300300C9451000C9451000C9451000C945100F8
S11300400C94F1000C9451000C9451000C94510048
S11300500C9451000C94BF000C9451000C9451006A
S11300600C9451000C94510011241FBECFEFD8E022
S1130070DEBFCDBF11E0A0E0B1E0E6E3F3E002C0F3
S113008005900D92AA30B107D9F721E0AAE0B1E0BA
S113009001C01D92A632B207E1F70E9453000C94EE
S11300A099010C94000080E480937C008FEE80938F
S11300B07A0010927B0014B88EE384B91AB880E2F7
S11300C08AB915B88CE08BB91092250110922401DD
S11300D085E085BD8DE384BD16BC81E080936E0010
S11300E07894C4E2D1E00AE010E00F2EF8E2EF2E9B
S11300F0F12CF02DAA24A394B12C6894CC24C1F83B
S1130100D12CE0E1F1E080E090E021913191820F87
S1130110931FEC17FD07C9F7B8010E947101709392
S11301200D0160930C0180910201909103018617E7
S1130130970728F4F0920701E092060104C0109397
S11301400701009306014A9B02C02C98DACF2C9A2F
S113015020910C0130910D018091040190910501D1
S11301608217930730F42D9AD0920101C0920001B6
S1130170C8CF2D98B0920101A0920001C2CF1F9266
S11301800F920FB60F9211242F933F938F939F9347
S1130190EF93FF9380910A0190910B010196909344
S11301A00B0180930A018A30910560F42091780054
S11301B030917900880F991FFC01E05FFE4F318375
S11301C0208304C010920B0110920A01FF91EF9159
S11301D09F918F913F912F910F900FBE0F901F9081
S11301E018951F920F920FB60F9211242F933F93DD
S11301F08F939F938DE386BD809124019091250177
S11302000196909325018093240120910E01309151
S11302100F012F5F3F4F30930F0120930E01209168
S113022006013091070182179307E8F115B84B9B3B
S11302301FC081E090E00090080102C0880F991F60
S11302400A94E2F785B980910801909109018430FC
S1130250910530F4019690930901809308011FC021
S113026015B881E090E0909309018093080117C0CC
S113027080910801909109018730910530F401962D
S1130280909309018093080104C01092090110920F
S1130290080195B180910801880F892B85B91092C6
S11302A0250110922401209124013091250180918F
S11302B00001909101012817390750F04A9B04C0AE
S11302C09BB180E289278BB910920F0110920E0125
S11302D09F918F913F912F910F900FBE0F901F9080
S11302E0189597FB072E16F4009407D077FD09D0D4
S11302F00E94850107FC05D03EF4909581959F4F9F
S11303000895709561957F4F0895AA1BBB1B51E119
S113031007C0AA1FBB1FA617B70710F0A61BB70B71
S1130320881F991F5A95A9F780959095BC01CD0116
S10903300895F894FFCFCC
S10D0336010000030002280001008A
S9030000FC
